:100000000C9499000C94C1000C94C1000C94C10094
:100010000C94C1000C94C1000C94C1000C94C1005C
:100020000C94C1000C94C1000C94C1000C94C1004C
:100030000C94C1000C94C1000C94C1000C94C1003C
:100040000C9489070C94C1000C940D090C945B0965
:100050000C94C1000C94C1000C94C1000C94C1001C
:100060000C94DA050C94C10020456E746572206E04
:100070006577206461746520616E642074696D65C4
:10008000206173202754595959594D4D444457689C
:10009000686D6D73732720776865726520573D31F1
:1000A0002069732053756E6461792C20573D32208E
:1000B0006973204D6F6E6461792C206574632E0026
:1000C0007C2020302000207C203120002D2D20207D
:1000D000200000000000240027002A00000000008B
:1000E000250028002B000000000023002600290026
:1000F00004040404040404040202020202020303CE
:1001000003030303010204081020408001020408D5
:100110001020010204081020000000070002010066
:10012000000304060000000000000000C300760485
:10013000C70A11241FBECFEFD8E0DEBFCDBF11E04C
:10014000A0E0B1E0E0E0FAE102C005900D92A43732
:10015000B107D9F712E0A4E7B1E001C01D92AE3FAC
:10016000B107E1F711E0C2E3D1E004C02297FE013C
:100170000E94FA0CCC32D107C9F70E941D0B0C94D7
:10018000FE0C0C94000084E791E00E94190408958D
:100190008F929F92AF92BF92CF92DF92EF92FF9297
:1001A0000F931F93CF93DF93EC01188219821A8269
:1001B0001B821C821D821F821E82F8EE8F2EF3E0AE
:1001C0009F2EE4E6AE2EB12CC3C08CED92E00E94CF
:1001D0004E0A843509F0BCC08CED92E00E944E0AB4
:1001E0007C018CED92E00E944E0A6C018CED92E055
:1001F0000E944E0A8C018CED92E00E944E0AC0973C
:1002000020ED3FEFE20EF31EE89C9001E99C300DDB
:10021000F89C300D1124820F931F20ED3FEFC20E8A
:10022000D31ECA9C9001CB9C300DDA9C300D11245A
:10023000820F931F00531040980173E0220F331F69
:100240007A95E1F7000F111F200F311F820F931FC6
:100250009F838E838CED92E00E944E0A8C018CED80
:1002600092E00E944E0A00531040980153E0220F82
:10027000331F5A95E1F7000F111F200F311FC09750
:10028000280F2D838CED92E00E944E0A8C018CED9C
:1002900092E00E944E0A005310409801B3E0220FF2
:1002A000331FBA95E1F7000F111F200F311FC097C0
:1002B000280F2C838CED92E00E944E0A80538B8392
:1002C0008CED92E00E944E0A8C018CED92E00E942F
:1002D0004E0A005310409801F3E0220F331FFA95A5
:1002E000E1F7000F111F200F311FC097280F2A833D
:1002F0008CED92E00E944E0A8C018CED92E00E94FF
:100300004E0A00531040980173E0220F331F7A9574
:10031000E1F7000F111F200F311FC097280F29830D
:100320008CED92E00E944E0A8C018CED92E00E94CE
:100330004E0A00531040980153E0220F331F5A9584
:10034000E1F7000F111F200F311FC097280F2883DE
:100350008CED92E00E941D0A40970CF036CFDF91A1
:10036000CF911F910F91FF90EF90DF90CF90BF90B2
:10037000AF909F908F900895CF93DF93EC018A30D8
:1003800091052CF48CED92E060E30E94790B8CEDEA
:1003900092E0BE014AE050E00E94810CDF91CF91D3
:1003A00008950F931F93082F85E00E94B908182F16
:1003B00084E791E00E944A03011741F08CED92E03E
:1003C0006CEC70E00E94560B11E00EC0002329F087
:1003D0008CED92E066EC70E004C08CED92E060EC95
:1003E00070E00E94560B10E06091820170918301D1
:1003F0008CED92E04AE050E00E94300C8CED92E0EF
:100400006DE20E94790B8091810190E00E94BC0115
:100410008CED92E06DE20E94790B8091800190E07A
:100420000E94BC018CED92E060E20E94790BE091A9
:100430007F01F0E0EE0FFF1FEC5BFE4F60817181EA
:100440008CED92E00E94940C8CED92E060E20E94B0
:10045000790B80917E0190E00E94BC018CED92E0CE
:100460006AE30E94790B80917D0190E00E94BC01BB
:100470008CED92E06AE30E94790B80917C0190E020
:100480000E94BC01112331F08CED92E068E670E02F
:100490000E94560B8CED92E00E94810B1F910F91F0
:1004A00008950F931F93DF93CF93CDB7DEB72897AF
:1004B0000FB6F894DEBF0FBECDBF8CED92E00E9468
:1004C0001D0A892B71F08E010F5F1F4FC8010E941A
:1004D000C8008E81882329F084E791E0B8010E944A
:1004E000A90280918A010E94D10180938A0164E669
:1004F00070E080E090E00E94D10728960FB6F89453
:10050000DEBF0FBECDBFCF91DF911F910F91089538
:100510008CED92E040E052EC61E070E00E949609C0
:1005200084E791E061E070E00E94FA0285E00E94B9
:10053000B90880938A010895282F6AE00E94B60CBA
:10054000382F3295307F822F0E94B60C832F890F6F
:100550000895EF92FF920F931F937B0101ED11E03D
:10056000C80168E670E00E943C04C80160E00E9497
:10057000BE04F70180810E949C02682FC8010E947E
:10058000BE04F70181810E949C02682FC8010E946D
:10059000BE04F70182810E949C02682FC8010E945C
:1005A000BE04F70183810E949C02682FC8010E944B
:1005B000BE04F70184810E949C02682FC8010E943A
:1005C000BE04F70185810E949C02682FC8010E9429
:1005D000BE04F7018681825B0E949C02682FC801DD
:1005E0000E94BE04C8010E9401051F910F91FF9057
:1005F000EF9008951F93CF93DF93EB0181ED91E08E
:1006000068E670E00E943C0481ED91E06EE00E949B
:10061000BE0481ED91E00E94010581ED91E068E664
:1006200070E041E050E00E94120581ED91E00E94EF
:100630004F04182FC130D10511F4177E12C084E089
:10064000C030D80719F418601F7E0BC080E1C0309D
:10065000D80719F4177F106104C0C050D04209F4C4
:10066000186181ED91E068E670E00E943C0481ED44
:1006700091E06EE00E94BE041B7F81ED91E0612F4E
:100680000E94BE0481ED91E00E940105DF91CF91AF
:100690001F910895EF92FF920F931F938C01E1ED4C
:1006A000EE2EE1E0FE2EC70168E670E00E943C04F9
:1006B000C70160E00E94BE04C7010E940105C70196
:1006C00068E670E047E050E00E941205C7010E9412
:1006D0004F048F77F8018083C7010E944F04F8010F
:1006E0008183C7010E944F048F73F8018283C70181
:1006F0000E944F04F8018383C7010E944F04F80150
:100700008483C7010E944F04682F6F77F8016583C7
:100710009081292F22952F7030E0A90173E0440FBA
:10072000551F7A95E1F7220F331F420F531F9F7019
:10073000940F90879181292F22952F7030E0A90185
:10074000A3E0440F551FAA95E1F7220F331F420F74
:10075000531F9F70940F91879281292F22952F709C
:1007600030E0A901B3E0440F551FBA95E1F7220F1D
:10077000331F420F531F9F70940F92879381292F2D
:1007800022952F7030E0A90173E0440F551F7A9530
:10079000E1F7220F331F420F531F9F70940F93876F
:1007A0009481292F22952F7030E0A901A3E0440FF6
:1007B000551FAA95E1F7220F331F420F531F9F7059
:1007C000940F948762956F7070E09B0153E0220F45
:1007D000331F5A95E1F7660F771F260F371F8F706B
:1007E000820F8587C7010E944F04282F22952F7002
:1007F00030E0A90193E0440F551F9A95E1F7220FCD
:10080000331F420F531F8F70840F90E08E54984F08
:10081000F8019787868768EE73E00E94C20C0E94F9
:100820009C02F801868317821F910F91FF90EF9031
:1008300008950F931F938C0181ED91E00E9416059E
:10084000F80110821182128213821482158217829B
:1008500016821086118612861386148615861786D0
:10086000168680E090E0A0E0B0E0808B918BA28BB8
:10087000B38B1F910F91089581E08093D001609315
:10088000AD011092CE011092CF0108952091AC01DC
:1008900030E08091AB01281B3109C90108954091D6
:1008A000AB018091AC01481718F02FEF3FEF0AC061
:1008B000E42FF0E0E557FE4F8081282F30E04F5FB6
:1008C0004093AB01C9010895E091AB018091AC0167
:1008D000E81718F0EFEFFFEF06C0F0E0E557FE4F26
:1008E0008081E82FF0E0CF01089508951092D4019F
:1008F0001092D30188EE93E0A0E0B0E08093D501A0
:100900009093D601A093D701B093D80188E591E0E8
:100910009093D2018093D1010895CF92DF92EF920C
:10092000FF920F931F93CF93DF937C016B018A019A
:100930008091D0018823A1F0C0E0D0E00DC0D701A4
:10094000ED91FC91D601AC0FBD1F0190F081E02D1F
:10095000C7016C9109952196C017D10780F304C097
:10096000CB01642F0E94BF05C801DF91CF911F9179
:100970000F91FF90EF90DF90CF900895DF93CF938A
:100980000F92CDB7DEB7FC0169838091D001882337
:10099000C9F08091CF01803238F081E090E09383FC
:1009A000828320E030E015C08091CE01E82FF0E096
:1009B000E255FE4F998190838F5F8093CE018093A3
:1009C000CF0105C0CE01019661E00E94BF0521E084
:1009D00030E0C9010F90CF91DF9108950F93062F5A
:1009E0008091AD016EEA71E04091CF0121E00E945B
:1009F0006A051092CE011092CF011092D0010F9192
:100A0000089561E00E94EE040895413208F040E24A
:100A1000862F6BE871E00E9421051092AB01809354
:100A2000AC01089521E00E94050508951092AB01E4
:100A30001092AC011092CE011092CF010E946B0770
:100A40000895382F413210F040E042C08091DD011E
:100A50008823E1F791E09093DD012093DF018FEF90
:100A600080934A02109205024150409306024F5F64
:100A70009093DE018091DE01330F832B8093DE01A2
:100A80008091E001813041F41092E0018091DE011B
:100A90008093BB0085EC01C085EE8093BC00809103
:100AA000DD018130E1F380910502841710F440915B
:100AB000050220E030E00AC0FB01E20FF31FD9017C
:100AC000AB51BE4F8C9180832F5F3F4F2417A0F313
:100AD000842F08950F931F93582F122F413210F037
:100AE00081E04AC08091DD018823E1F782E08093B4
:100AF000DD010093DF018FEF80934A02109205021F
:100B000040930602A5EEB1E0FB0102C081918D93F6
:100B10008E2F861B8417D0F31092DE018091DE01A8
:100B2000550F852B8093DE018091E001813041F4E7
:100B30001092E0018091DE018093BB0085EC01C042
:100B400085EE8093BC00112321F08091DD0182307D
:100B5000E1F380914A028F3F11F480E00DC0809153
:100B60004A02803211F482E007C080914A02803349
:100B700011F084E001C083E01F910F910895482F88
:100B8000613210F081E008958091DD01843011F030
:100B900082E0089560932802A7E0B2E0842F9C01D0
:100BA000F90102C081918D938E2F841B8617D0F39B
:100BB00080E008951F920F920FB60F9211242F9389
:100BC0003F934F935F936F937F938F939F93AF93D5
:100BD000BF93EF93FF938091B90090E0887F90706E
:100BE0008036910509F4F2C081369105CCF5883242
:100BF000910509F47BC089329105B4F480319105E7
:100C000009F46FC0813191053CF4009709F447C1A4
:100C1000089709F04FC165C08831910509F466C095
:100C2000809709F047C182C08034910509F4A4C0BF
:100C30008134910544F48033910509F482C0C8974A
:100C400009F038C189C08035910509F489C088351B
:100C5000910509F496C08834910509F02BC1AEC006
:100C60008839910509F413C189399105ECF4883765
:100C7000910509F4ABC0893791054CF4883691058C
:100C800009F4A4C08037910509F014C19FC08838C9
:100C9000910509F4FCC08039910509F49DC08038A4
:100CA000910509F007C198C0803B910509F4C6C0C1
:100CB000813B91054CF4803A910509F49FC0883A34
:100CC000910509F0F7C0BAC0803C910509F4E3C072
:100CD000883C910509F4DFC0883B910509F0EAC022
:100CE000C2C08091DE018093BB00CFC0909105020D
:100CF00080910602981768F490910502E92FF0E0C0
:100D0000EB51FE4F80818093BB009F5F9093050263
:100D1000BCC08091DF01882309F44BC085ED80932E
:100D2000BC008091BC0084FDFCCFC2C080E28093F7
:100D30004A0285ED8093BC008091BC0084FDFCCF0D
:100D4000B7C080E380934A0285ED8093BC00809118
:100D5000BC0084FDFCCFACC088E380934A029BC0FA
:100D6000809105029091BB00E82FF0E0EB51FE4F1F
:100D700090838F5F80930502909105028091060217
:100D800082C0809105029091BB00E82FF0E0EB510A
:100D9000FE4F90838F5F809305028091DF0188234F
:100DA00041F085ED8093BC008091BC0084FDFCCFB8
:100DB0007FC081E08093E00184EA6EC085ED80937E
:100DC000BC008091BC0084FDFCCF72C083E08093A6
:100DD000DD011092490259C080914902803208F029
:100DE00056C0809149029091BB00E82FF0E0E75D8A
:100DF000FD4F90838F5F8093490247C080914902E5
:100E0000803230F4E0914902F0E0E75DFD4F10825E
:100E100085ED8093BC008091BC0084FDFCCF1092D6
:100E2000DD0160914902E091E301F091E40189E282
:100E300092E070E00995109249022DC084E0809301
:100E4000DD011092270210922802E091E101F09159
:100E5000E201099580912802882329F481E080939A
:100E600028021092070290912702E92FF0E0E95F33
:100E7000FD4F80818093BB009F5F909327029091EC
:100E8000270280912802981710F485EC01C085E8AC
:100E90008093BC000FC085EC8093BC0009C0109209
:100EA0004A0285ED8093BC008091BC0084FDFCCF9C
:100EB0001092DD01FF91EF91BF91AF919F918F91C2
:100EC0007F916F915F914F913F912F910F900FBE46
:100ED0000F901F9018951092DD0181E08093DF0143
:100EE0001092E00182E161E00E94650883E161E027
:100EF0000E946508E9EBF0E080818E7F808380812D
:100F00008D7F808388E48093B80085E48093BC0063
:100F100008951F920F920FB60F9211242F933F93B3
:100F20008F939F93AF93BF9380914F029091500204
:100F3000A0915102B0915202309153020196A11D2D
:100F4000B11D232F2D5F2D3720F02D570196A11DA8
:100F5000B11D2093530280934F0290935002A093AF
:100F60005102B093520280914B0290914C02A09199
:100F70004D02B0914E020196A11DB11D80934B020E
:100F800090934C02A0934D02B0934E02BF91AF914B
:100F90009F918F913F912F910F900FBE0F901F90B7
:100FA00018959B01AC017FB7F89480914B0290910A
:100FB0004C02A0914D02B0914E0266B5A89B05C0AF
:100FC0006F3F19F00196A11DB11D7FBFBA2FA92F48
:100FD000982F8827860F911DA11DB11D62E0880FF3
:100FE000991FAA1FBB1F6A95D1F7BC012DC0FFB77F
:100FF000F89480914B0290914C02A0914D02B091D7
:101000004E02E6B5A89B05C0EF3F19F00196A11D61
:10101000B11DFFBFBA2FA92F982F88278E0F911DC2
:10102000A11DB11DE2E0880F991FAA1FBB1FEA9501
:10103000D1F7861B970B885E9340C8F22150304051
:101040004040504068517C4F211531054105510504
:1010500071F60895789484B5826084BD84B581600A
:1010600084BD85B5826085BD85B5816085BDEEE6B0
:10107000F0E0808181608083E1E8F0E0108280818F
:1010800082608083808181608083E0E8F0E08081FD
:1010900081608083E1EBF0E0808184608083E0EB1D
:1010A000F0E0808181608083EAE7F0E08081846005
:1010B0008083808182608083808181608083808161
:1010C000806880831092C1000895482F50E0CA01C3
:1010D000885E9E4FFC012491CA018C5F9E4FFC01EB
:1010E000949140515F4FFA013491332309F440C089
:1010F000222351F1233071F0243028F42130A1F063
:10110000223011F514C02630B1F02730C1F0243060
:10111000D9F404C0809180008F7703C08091800053
:101120008F7D8093800010C084B58F7702C084B516
:101130008F7D84BD09C08091B0008F7703C08091FE
:10114000B0008F7D8093B000E32FF0E0EE0FFF1F23
:10115000E452FF4FA591B4912FB7F894662321F480
:101160008C919095892302C08C91892B8C932FBFF1
:101170000895682F70E0CB01885E9E4FFC0124919A
:10118000CB018C5F9E4FFC01449160517F4FFB016E
:101190009491992319F420E030E03CC0222351F1CE
:1011A000233071F0243028F42130A1F0223011F5E1
:1011B00014C02630B1F02730C1F02430D9F404C077
:1011C000809180008F7703C0809180008F7D809315
:1011D000800010C084B58F7702C084B58F7D84BD38
:1011E00009C08091B0008F7703C08091B0008F7DDF
:1011F0008093B000892F90E0880F991F8A519F4FEC
:10120000FC01A591B4918C9120E030E0842311F091
:1012100021E030E0C901089508951F920F920FB6A2
:101220000F9211242F933F934F938F939F93EF939C
:10123000FF938091C00082FD1DC04091C6002091A7
:101240009402309195022F5F3F4F2F733070809141
:101250009602909197022817390771F0E091940255
:10126000F0919502EC5AFD4F408330939502209304
:10127000940202C08091C600FF91EF919F918F91DF
:101280004F913F912F910F900FBE0F901F90189587
:10129000E091E802F091E902E05CFF4F81919191C9
:1012A00020813181821B930B8F739070892B11F0F9
:1012B0000E940C0908951F920F920FB60F921124ED
:1012C0002F933F938F939F93EF93FF932091D80297
:1012D0003091D9028091DA029091DB022817390708
:1012E00031F48091C1008F7D8093C10014C0E091E2
:1012F000DA02F091DB02E856FD4F20818091DA029C
:101300009091DB0201968F7390709093DB02809333
:10131000DA022093C600FF91EF919F918F913F9148
:101320002F910F900FBE0F901F901895AF92BF9204
:10133000DF92EF92FF920F931F93CF93DF93EC0115
:101340007A018B01DD24403081EE580780E0680788
:1013500080E0780711F0DD24D39491E0A92EB12C20
:10136000EC89FD89DD2069F0C50108A002C0880F65
:10137000991F0A94E2F7808360E079E08DE390E0C2
:1013800005C0108260E874E88EE190E0A801970142
:101390000E94D60C21503040404050405695479511
:1013A0003795279580E12030380720F0DD2011F0B7
:1013B000DD24D6CFE889F9893083EA89FB89208347
:1013C00019A2EE89FF89408121E030E0C9010C8C2F
:1013D00002C0880F991F0A94E2F7482B4083EE89D8
:1013E000FF894081C9010D8C02C0880F991F0A94A2
:1013F000E2F7482B4083EE89FF894081C9010E8CBA
:1014000002C0880F991F0A94E2F7482B4083EE89A7
:10141000FF8980810F8C02C0220F331F0A94E2F7EC
:10142000209528232083DF91CF911F910F91FF906A
:10143000EF90DF90BF90AF900895DC011C96ED9186
:10144000FC911D97E05CFF4F21913191808191814A
:10145000281B390B2F733070C9010895DC011C96CD
:10146000ED91FC911D97E05CFF4F20813181E054AC
:10147000F040DF01AE5BBF4F8D919C911197281713
:10148000390719F42FEF3FEF07C08D919C91E80FBA
:10149000F91F8081282F30E0C9010895DC011C96D6
:1014A000ED91FC911D97E05CFF4F20813181E0546C
:1014B000F040DF01AE5BBF4F8D919C9111972817D3
:1014C000390719F42FEF3FEF10C08D919C911197C0
:1014D000E80FF91F20818D919C91119701968F73D0
:1014E000907011969C938E9330E0C9010895DC01B1
:1014F00091968C919197882339F05496ED91FC91B7
:101500005597808186FFF9CF91961C920895CF93CD
:10151000DF93EC01EE85FF85E05CFF4F2081318198
:10152000E054F0402F5F3F4F2F733070DF01AE5B10
:10153000BF4F8D919C91119728173907D1F3E05C2B
:10154000FF4F80819181E054F040E80FF91F6083E4
:10155000EE85FF85E05CFF4F31832083EE89FF89B4
:10156000208181E090E00F8C02C0880F991F0A94BF
:10157000E2F7282B208381E089A3EC89FD89808113
:101580008064808381E090E0DF91CF910895109294
:10159000DF021092DE0288EE93E0A0E0B0E08093DC
:1015A000E0029093E102A093E202B093E30288E6A6
:1015B00091E09093DD028093DC0284E592E09093C9
:1015C000E9028093E80288E992E09093EB0280932D
:1015D000EA0285EC90E09093ED028093EC0284ECBB
:1015E00090E09093EF028093EE0280EC90E0909375
:1015F000F1028093F00281EC90E09093F3028093EB
:10160000F20282EC90E09093F5028093F40286EC73
:1016100090E09093F7028093F60284E08093F802C2
:1016200083E08093F90287E08093FA0285E080935B
:10163000FB0281E08093FC020895CF93DF930E9428
:101640002A080E948802C8E4D9E00E94510220972B
:10165000E1F30E944809F9CFCF92DF92EF92FF9217
:101660000F931F93CF93DF937C016B018A01C0E03E
:10167000D0E00FC0D6016D916D01D701ED91FC91C5
:101680000190F081E02DC7010995C80FD91F0150C5
:1016900010400115110571F7CE01DF91CF911F9117
:1016A0000F91FF90EF90DF90CF900895EF92FF920F
:1016B0000F931F93CF93DF937C018B01C0E0D0E0A9
:1016C000F8010F5F1F4F6491662359F0D701ED9128
:1016D000FC910190F081E02DC7010995C80FD91F39
:1016E000EFCFCE01DF91CF911F910F91FF90EF903F
:1016F0000895DC01ED91FC910190F081E02D0995B8
:101700000895EF92FF920F931F938C01DC01ED91EE
:10171000FC910190F081E02D6DE009957C01D801EC
:10172000ED91FC910190F081E02DC8016AE00995EE
:101730009C012E0D3F1DC9011F910F91FF90EF904D
:101740000895CF93DF93EC016115710519F420E042
:1017500030E00FC0DB010D900020E9F71197A61BC8
:10176000B70BE881F9810280F381E02DAD01099585
:101770009C01C901DF91CF9108954F925F927F92B2
:101780008F929F92AF92BF92CF92DF92EF92FF9291
:101790000F931F93DF93CF93CDB7DEB7A1970FB60B
:1017A000F894DEBF0FBECDBF2C01742ECB012230CA
:1017B00008F42AE019A231E2C32ED12CCC0EDD1E92
:1017C000822E9924AA24BB24672D752FA50194018C
:1017D0000E94D60C79018A01C801B701A5019401C4
:1017E0000E94970C472D461B0894C108D1084A3027
:1017F00014F4405D01C0495CF6014083E114F1043A
:101800000105110521F07E2C5F2DC801DDCFC2013D
:10181000B6010E94A10BA1960FB6F894DEBF0FBED1
:10182000CDBFCF91DF911F910F91FF90EF90DF908F
:10183000CF90BF90AF909F908F907F905F904F9090
:101840000895DC012115310541F4ED91FC910190E1
:10185000F081E02D642F099508950E94BD0B089535
:10186000EF92FF920F931F939A017B0100E010E02B
:10187000B801A7010E94210C1F910F91FF90EF90DA
:101880000895CF92DF92EF92FF920F931F93CF9321
:10189000DF93EC016A017B012115310541F4E881F8
:1018A000F9810190F081E02D642F09951FC02A3045
:1018B0003105D1F477FF17C0E881F9810190F081FB
:1018C000E02D6DE209958C0144275527BA014C198A
:1018D0005D096E097F09CE012AE00E94BD0B9801C7
:1018E000280F391F04C02AE00E94BD0B9C01C901CA
:1018F000DF91CF911F910F91FF90EF90DF90CF90EC
:101900000895EF92FF920F931F937B019A01002796
:10191000F7FC0095102FB801A7010E94410C1F9100
:101920000F91FF90EF9008950E94A10B0895629F80
:10193000D001739FF001829FE00DF11D649FE00DC7
:10194000F11D929FF00D839FF00D749FF00D659F28
:10195000F00D9927729FB00DE11DF91F639FB00D27
:10196000E11DF91FBD01CF0111240895991B79E0F4
:1019700004C0991F961708F0961B881F7A95C9F71F
:1019800080950895AA1BBB1B51E107C0AA1FBB1F6E
:10199000A617B70710F0A61BB70B881F991F5A95FB
:1019A000A9F780959095BC01CD010895A1E21A2E6A
:1019B000AA1BBB1BFD010DC0AA1FBB1FEE1FFF1FF3
:1019C000A217B307E407F50720F0A21BB30BE40B43
:1019D000F50B661F771F881F991F1A9469F760958A
:1019E0007095809590959B01AC01BD01CF01089544
:1019F000EE0FFF1F0590F491E02D0994F894FFCFAE
:101A000053756E646179202020004D6F6E6461799A
:101A1000202020005475657364617920200057658B
:101A2000646E65736461790054687572736461797A
:101A3000200046726964617920202000536174752A
:101A400072646179200000010A0114011E0128015D
:101A500032013C0100000000BE048D0446044F0426
:101A60006404750400000000870A2C0B1D0A4E0A4E
:041A70002E0A770AB9
:00000001FF
